{
  "abi": [
    {
      "type": "constructor",
      "inputs": [
        {
          "name": "_router",
          "type": "address",
          "internalType": "address"
        },
        {
          "name": "_receiver",
          "type": "address",
          "internalType": "address"
        },
        {
          "name": "_destinationChainSelector",
          "type": "uint64",
          "internalType": "uint64"
        }
      ],
      "stateMutability": "nonpayable"
    },
    {
      "type": "fallback",
      "stateMutability": "payable"
    },
    {
      "type": "receive",
      "stateMutability": "payable"
    },
    {
      "type": "function",
      "name": "balance",
      "inputs": [],
      "outputs": [
        {
          "name": "",
          "type": "uint256",
          "internalType": "uint256"
        }
      ],
      "stateMutability": "view"
    },
    {
      "type": "function",
      "name": "chooseOption",
      "inputs": [
        {
          "name": "isHeads",
          "type": "bool",
          "internalType": "bool"
        }
      ],
      "outputs": [],
      "stateMutability": "nonpayable"
    },
    {
      "type": "function",
      "name": "i_destinationChainSelector",
      "inputs": [],
      "outputs": [
        {
          "name": "",
          "type": "uint64",
          "internalType": "uint64"
        }
      ],
      "stateMutability": "view"
    },
    {
      "type": "function",
      "name": "i_receiver",
      "inputs": [],
      "outputs": [
        {
          "name": "",
          "type": "address",
          "internalType": "address"
        }
      ],
      "stateMutability": "view"
    },
    {
      "type": "function",
      "name": "i_router",
      "inputs": [],
      "outputs": [
        {
          "name": "",
          "type": "address",
          "internalType": "contract IRouterClient"
        }
      ],
      "stateMutability": "view"
    },
    {
      "type": "function",
      "name": "owner",
      "inputs": [],
      "outputs": [
        {
          "name": "",
          "type": "address",
          "internalType": "address"
        }
      ],
      "stateMutability": "view"
    },
    {
      "type": "function",
      "name": "prepareMessageAndGetFees",
      "inputs": [
        {
          "name": "isHeads",
          "type": "bool",
          "internalType": "bool"
        },
        {
          "name": "user",
          "type": "address",
          "internalType": "address"
        }
      ],
      "outputs": [
        {
          "name": "",
          "type": "tuple",
          "internalType": "struct Client.EVM2AnyMessage",
          "components": [
            {
              "name": "receiver",
              "type": "bytes",
              "internalType": "bytes"
            },
            {
              "name": "data",
              "type": "bytes",
              "internalType": "bytes"
            },
            {
              "name": "tokenAmounts",
              "type": "tuple[]",
              "internalType": "struct Client.EVMTokenAmount[]",
              "components": [
                {
                  "name": "token",
                  "type": "address",
                  "internalType": "address"
                },
                {
                  "name": "amount",
                  "type": "uint256",
                  "internalType": "uint256"
                }
              ]
            },
            {
              "name": "feeToken",
              "type": "address",
              "internalType": "address"
            },
            {
              "name": "extraArgs",
              "type": "bytes",
              "internalType": "bytes"
            }
          ]
        },
        {
          "name": "",
          "type": "uint256",
          "internalType": "uint256"
        }
      ],
      "stateMutability": "view"
    },
    {
      "type": "function",
      "name": "renounceOwnership",
      "inputs": [],
      "outputs": [],
      "stateMutability": "nonpayable"
    },
    {
      "type": "function",
      "name": "transferOwnership",
      "inputs": [
        {
          "name": "newOwner",
          "type": "address",
          "internalType": "address"
        }
      ],
      "outputs": [],
      "stateMutability": "nonpayable"
    },
    {
      "type": "function",
      "name": "withdraw",
      "inputs": [],
      "outputs": [],
      "stateMutability": "nonpayable"
    },
    {
      "type": "event",
      "name": "OptionChosen",
      "inputs": [
        {
          "name": "messageId",
          "type": "bytes32",
          "indexed": true,
          "internalType": "bytes32"
        },
        {
          "name": "sender",
          "type": "address",
          "indexed": true,
          "internalType": "address"
        },
        {
          "name": "isHeads",
          "type": "bool",
          "indexed": true,
          "internalType": "bool"
        }
      ],
      "anonymous": false
    },
    {
      "type": "event",
      "name": "OwnershipTransferred",
      "inputs": [
        {
          "name": "previousOwner",
          "type": "address",
          "indexed": true,
          "internalType": "address"
        },
        {
          "name": "newOwner",
          "type": "address",
          "indexed": true,
          "internalType": "address"
        }
      ],
      "anonymous": false
    },
    {
      "type": "error",
      "name": "NotEnoughBalance",
      "inputs": [
        {
          "name": "balance",
          "type": "uint256",
          "internalType": "uint256"
        },
        {
          "name": "fees",
          "type": "uint256",
          "internalType": "uint256"
        }
      ]
    },
    {
      "type": "error",
      "name": "OwnableInvalidOwner",
      "inputs": [
        {
          "name": "owner",
          "type": "address",
          "internalType": "address"
        }
      ]
    },
    {
      "type": "error",
      "name": "OwnableUnauthorizedAccount",
      "inputs": [
        {
          "name": "account",
          "type": "address",
          "internalType": "address"
        }
      ]
    },
    {
      "type": "error",
      "name": "WithdrawReverted",
      "inputs": []
    }
  ],
  "bytecode": {
    "object": "0x60e060405234801561001057600080fd5b50604051610ad7380380610ad783398101604081905261002f916100ef565b338061005557604051631e4fbdf760e01b81526000600482015260240160405180910390fd5b61005e81610083565b506001600160a01b03928316608052911660c0526001600160401b031660a052610143565b600080546001600160a01b038381166001600160a01b0319831681178455604051919092169283917f8be0079c531659141344cd1fd0a4f28419497f9722a3daafe3b4186f6b6457e09190a35050565b80516001600160a01b03811681146100ea57600080fd5b919050565b60008060006060848603121561010457600080fd5b61010d846100d3565b925061011b602085016100d3565b60408501519092506001600160401b038116811461013857600080fd5b809150509250925092565b60805160a05160c0516109446101936000396000818160aa015261033d01526000818160fb0152818161049e015261058b01526000818161015d01528181610471015261055b01526109446000f3fe60806040526004361061008f5760003560e01c80638da5cb5b116100565780638da5cb5b146101945780639a514f86146101b2578063b69ef8a8146101e0578063d1d43651146101fb578063f2fde38b1461021b57005b806313a0b5971461009857806331359a4b146100e95780633ccfd60b14610136578063581bdd161461014b578063715018a61461017f57005b3661009657005b005b3480156100a457600080fd5b506100cc7f000000000000000000000000000000000000000000000000000000000000000081565b6040516001600160a01b0390911681526020015b60405180910390f35b3480156100f557600080fd5b5061011d7f000000000000000000000000000000000000000000000000000000000000000081565b60405167ffffffffffffffff90911681526020016100e0565b34801561014257600080fd5b5061009661023b565b34801561015757600080fd5b506100cc7f000000000000000000000000000000000000000000000000000000000000000081565b34801561018b57600080fd5b506100966102ba565b3480156101a057600080fd5b506000546001600160a01b03166100cc565b3480156101be57600080fd5b506101d26101cd366004610729565b6102ce565b6040516100e092919061086b565b3480156101ec57600080fd5b506040514781526020016100e0565b34801561020757600080fd5b5061009661021636600461088d565b610517565b34801561022757600080fd5b506100966102363660046108af565b610645565b610243610680565b600080546040516001600160a01b039091169047908381818185875af1925050503d8060008114610290576040519150601f19603f3d011682016040523d82523d6000602084013e610295565b606091505b50509050806102b757604051637025765160e01b815260040160405180910390fd5b50565b6102c2610680565b6102cc60006106ad565b565b6103096040518060a0016040528060608152602001606081526020016060815260200160006001600160a01b03168152602001606081525090565b604080516060808201835285151582526001600160a01b03858116602080850191825242858701908152865160a0810188527f0000000000000000000000000000000000000000000000000000000000000000851660c0808301919091528851808303909101815260e08201895281528751875115158185015293519094168388015251828501528551808303909401845260809091018552818101929092528351600080825292810185529193849290820190836103ea565b60408051808201909152600080825260208201528152602001906001900390816103c35790505b50815260200160006001600160a01b03168152602001610452604051806020016040528062030d4081525060408051915160248084019190915281518084039091018152604490920190526020810180516001600160e01b03166397a657c960e01b17905290565b90526040516320487ded60e01b81529091506000906001600160a01b037f000000000000000000000000000000000000000000000000000000000000000016906320487ded906104c8907f00000000000000000000000000000000000000000000000000000000000000009086906004016108ca565b602060405180830381865afa1580156104e5573d6000803e3d6000fd5b505050506040513d601f19601f8201168201806040525081019061050991906108f5565b919791965090945050505050565b60008061052483336102ce565b915091504781111561055757604051634787a10360e11b8152476004820152602481018290526044015b60405180910390fd5b60007f00000000000000000000000000000000000000000000000000000000000000006001600160a01b03166396f4e9f9837f0000000000000000000000000000000000000000000000000000000000000000866040518463ffffffff1660e01b81526004016105c89291906108ca565b60206040518083038185885af11580156105e6573d6000803e3d6000fd5b50505050506040513d601f19601f8201168201806040525081019061060b91906108f5565b60405190915084151590339083907fc2622afc28517b0530d70c11de39649823a6ca05411c2d38c85009a35c0b8f3b90600090a450505050565b61064d610680565b6001600160a01b03811661067757604051631e4fbdf760e01b81526000600482015260240161054e565b6102b7816106ad565b6000546001600160a01b031633146102cc5760405163118cdaa760e01b815233600482015260240161054e565b600080546001600160a01b038381166001600160a01b0319831681178455604051919092169283917f8be0079c531659141344cd1fd0a4f28419497f9722a3daafe3b4186f6b6457e09190a35050565b8035801515811461070d57600080fd5b919050565b80356001600160a01b038116811461070d57600080fd5b6000806040838503121561073c57600080fd5b610745836106fd565b915061075360208401610712565b90509250929050565b6000815180845260005b8181101561078257602081850181015186830182015201610766565b506000602082860101526020601f19601f83011685010191505092915050565b6000815160a084526107b760a085018261075c565b9050602083015184820360208601526107d0828261075c565b60408581015187830391880191909152805180835260209182019450600093509101905b8083101561082b57835180516001600160a01b031683526020908101518184015290930192600192909201916040909101906107f4565b506060850151925061084860608701846001600160a01b03169052565b608085015192508581036080870152610861818461075c565b9695505050505050565b60408152600061087e60408301856107a2565b90508260208301529392505050565b60006020828403121561089f57600080fd5b6108a8826106fd565b9392505050565b6000602082840312156108c157600080fd5b6108a882610712565b67ffffffffffffffff831681526040602082015260006108ed60408301846107a2565b949350505050565b60006020828403121561090757600080fd5b505191905056fea26469706673582212201345a26c81b014c124443f66012aae00ce81508b3f5b57755736e671d8e3524064736f6c634300081a0033",
    "linkReferences": {}
  },
  "methodIdentifiers": {
    "balance()": "b69ef8a8",
    "chooseOption(bool)": "d1d43651",
    "i_destinationChainSelector()": "31359a4b",
    "i_receiver()": "13a0b597",
    "i_router()": "581bdd16",
    "owner()": "8da5cb5b",
    "prepareMessageAndGetFees(bool,address)": "9a514f86",
    "renounceOwnership()": "715018a6",
    "transferOwnership(address)": "f2fde38b",
    "withdraw()": "3ccfd60b"
  },
  "id": 70
}